{
	"data": {
		"bytecode": {
			"linkReferences": {},
			"object": "608060405234801561001057600080fd5b50610155806100206000396000f3fe608060405234801561001057600080fd5b506004361061002b5760003560e01c80638dfe2b9f14610030575b600080fd5b6100b3600480360360a081101561004657600080fd5b81019080803560ff169060200190929190803573ffffffffffffffffffffffffffffffffffffffff16906020019092919080359060200190929190803573ffffffffffffffffffffffffffffffffffffffff169060200190929190803590602001909291905050506100d7565b604051808260058111156100c357fe5b60ff16815260200191505060405180910390f35b60008060058111156100e557fe5b8660058111156100f157fe5b5050600085905060008490508386121561011057600192505050610117565b6000925050505b9594505050505056fea265627a7a72315820777a10c814f9b7348c5db7399821867cd8545bc024e4b7e366ff960de7d4d9c664736f6c63430005110032",
			"opcodes": "PUSH1 0x80 PUSH1 0x40 MSTORE CALLVALUE DUP1 ISZERO PUSH2 0x10 JUMPI PUSH1 0x0 DUP1 REVERT JUMPDEST POP PUSH2 0x155 DUP1 PUSH2 0x20 PUSH1 0x0 CODECOPY PUSH1 0x0 RETURN INVALID PUSH1 0x80 PUSH1 0x40 MSTORE CALLVALUE DUP1 ISZERO PUSH2 0x10 JUMPI PUSH1 0x0 DUP1 REVERT JUMPDEST POP PUSH1 0x4 CALLDATASIZE LT PUSH2 0x2B JUMPI PUSH1 0x0 CALLDATALOAD PUSH1 0xE0 SHR DUP1 PUSH4 0x8DFE2B9F EQ PUSH2 0x30 JUMPI JUMPDEST PUSH1 0x0 DUP1 REVERT JUMPDEST PUSH2 0xB3 PUSH1 0x4 DUP1 CALLDATASIZE SUB PUSH1 0xA0 DUP2 LT ISZERO PUSH2 0x46 JUMPI PUSH1 0x0 DUP1 REVERT JUMPDEST DUP2 ADD SWAP1 DUP1 DUP1 CALLDATALOAD PUSH1 0xFF AND SWAP1 PUSH1 0x20 ADD SWAP1 SWAP3 SWAP2 SWAP1 DUP1 CALLDATALOAD PUSH20 0xFFFFFFFFFFFFFFFFFFFFFFFFFFFFFFFFFFFFFFFF AND SWAP1 PUSH1 0x20 ADD SWAP1 SWAP3 SWAP2 SWAP1 DUP1 CALLDATALOAD SWAP1 PUSH1 0x20 ADD SWAP1 SWAP3 SWAP2 SWAP1 DUP1 CALLDATALOAD PUSH20 0xFFFFFFFFFFFFFFFFFFFFFFFFFFFFFFFFFFFFFFFF AND SWAP1 PUSH1 0x20 ADD SWAP1 SWAP3 SWAP2 SWAP1 DUP1 CALLDATALOAD SWAP1 PUSH1 0x20 ADD SWAP1 SWAP3 SWAP2 SWAP1 POP POP POP PUSH2 0xD7 JUMP JUMPDEST PUSH1 0x40 MLOAD DUP1 DUP3 PUSH1 0x5 DUP2 GT ISZERO PUSH2 0xC3 JUMPI INVALID JUMPDEST PUSH1 0xFF AND DUP2 MSTORE PUSH1 0x20 ADD SWAP2 POP POP PUSH1 0x40 MLOAD DUP1 SWAP2 SUB SWAP1 RETURN JUMPDEST PUSH1 0x0 DUP1 PUSH1 0x5 DUP2 GT ISZERO PUSH2 0xE5 JUMPI INVALID JUMPDEST DUP7 PUSH1 0x5 DUP2 GT ISZERO PUSH2 0xF1 JUMPI INVALID JUMPDEST POP POP PUSH1 0x0 DUP6 SWAP1 POP PUSH1 0x0 DUP5 SWAP1 POP DUP4 DUP7 SLT ISZERO PUSH2 0x110 JUMPI PUSH1 0x1 SWAP3 POP POP POP PUSH2 0x117 JUMP JUMPDEST PUSH1 0x0 SWAP3 POP POP POP JUMPDEST SWAP6 SWAP5 POP POP POP POP POP JUMP INVALID LOG2 PUSH6 0x627A7A723158 KECCAK256 PUSH24 0x7A10C814F9B7348C5DB7399821867CD8545BC024E4B7E366 SELFDESTRUCT SWAP7 0xD 0xE7 0xD4 0xD9 0xC6 PUSH5 0x736F6C6343 STOP SDIV GT STOP ORIGIN "
		},
		"gasEstimates": {
			"creation": {
				"codeDepositCost": "68200",
				"executionCost": "117",
				"totalCost": "68317"
			},
			"external": {
				"chooseNextAction(uint8,address,int256,address,int256)": "569"
			}
		},
		"methodIdentifiers": {
			"chooseNextAction(uint8,address,int256,address,int256)": "8dfe2b9f"
		}
	},
	"abi": [
		{
			"inputs": [],
			"payable": false,
			"stateMutability": "nonpayable",
			"type": "constructor"
		},
		{
			"constant": true,
			"inputs": [
				{
					"internalType": "enum ActionStrategy.Action",
					"name": "previousAdvAction",
					"type": "uint8"
				},
				{
					"internalType": "address",
					"name": "avatar",
					"type": "address"
				},
				{
					"internalType": "int256",
					"name": "damages",
					"type": "int256"
				},
				{
					"internalType": "address",
					"name": "avatarAdv",
					"type": "address"
				},
				{
					"internalType": "int256",
					"name": "damagesAdv",
					"type": "int256"
				}
			],
			"name": "chooseNextAction",
			"outputs": [
				{
					"internalType": "enum ActionStrategy.Action",
					"name": "action",
					"type": "uint8"
				}
			],
			"payable": false,
			"stateMutability": "view",
			"type": "function"
		}
	]
}